:020000040000FA
:060000000A128A11F92F1B
:100E40000A128A1126270A128A1108008316031330
:100E50008801091189100A128A11A2270A128A111F
:100E600008000A128A1120270A128A1100300A1279
:100E70008A1171270A128A11362F0A128A11002844
:100E8000F500F00174080A128A1151270A128A111A
:100E9000F001F00A75080A128A1151270A128A1104
:100EA0000800F3007018552F592F831203130915EA
:100EB0005C2F831203130911730888008914A6306C
:100EC000F100F10B612F00008312031389101B3016
:100ED000F2009E30F100F10B6B2FF20B6B2F000034
:100EE0000800F6007908031D762F772F812F7608EA
:100EF000803EF4005F300A128A1140270A128A11DC
:100F00008A2F7608803EF40020300A128A1140278A
:100F10000A128A110130F7070318F80A0030F8079F
:100F2000293077067804031D962F972FA12FF701FC
:100F3000F801790803199D2F9F2F0130A02F003051
:100F4000F9000800C330F500CD30F400F40BA62FF3
:100F5000F50BA62FF00133300A128A1151270A121D
:100F60008A111B30F5009E30F400F40BB52FF50B01
:100F7000B52F0000F00133300A128A1151270A12EE
:100F80008A11A630F400F40BC32F0000F0013330B7
:100F90000A128A1151270A128A11CE2FCF2F000070
:100FA000F00138300A128A1151270A128A11A6302C
:100FB000F400F40BD92F0000F00101300A128A115D
:100FC00051270A128A110430F5003D30F400F40B69
:100FD000E72FF50BE72FEC2FF0010C300A128A11E6
:100FE00051270A128A11A630F400F40BF52F0000E5
:100FF0000800F701F801F90183010A128A11312F63
:02400E00FB3F76
:00000001FF
