:020000040000FA
:060000000A128A11FC2F18
:1000080070087104031909280A283928F501F50A26
:10001800182801300310F00DF10DFF3E031D0E28C6
:100028000130F4007408F507F11F1B281C280D285F
:1000380071087302031D222870087202031C252808
:1000480026282C287008F2027108031CF303F30217
:1000580001300310F10CF00CFF3E031D2D28013078
:10006800F502031D382839281C287308F100720886
:10007800F0000800F501F60170087104031945281D
:1000880046287D28F701F70A542801300310F00D9F
:10009800F10DFF3E031D4A280130F4007408F707EC
:1000A800F11F57285828492801300310F50DF60D7F
:1000B800FF3E031D592871087302031D6528700847
:1000C8007202031C6828692870287008F2027108F7
:1000D800031CF303F302751401300310F10CF00C48
:1000E800FF3E031D71280130F702031D7C287D287F
:1000F80058287608F1007508F0000800C330F500AC
:10010800CD30F400F40B8628F50B8628F001333047
:100118000A128A158A270A128A111B30F5009E30A6
:10012800F400F40B9528F50B95280000F001333006
:100138000A128A158A270A128A11A630F400F40BCB
:10014800A3280000F00133300A128A158A270A1200
:100158008A11AE28AF280000F00138300A128A153B
:100168008A270A128A11A630F400F40BB928000075
:10017800F00101300A128A158A270A128A110430FE
:10018800F5003D30F400F40BC728F50BC728CC2840
:10019800F0010C300A128A158A270A128A11A63031
:1001A800F400F40BD5280000080001308312031373
:1001B800A3000030A4002308203E84000A30F00089
:1001C8000030F1007908F3007808F2000A128A1169
:1001D80004200A128A117008303E831380000A3006
:1001E800F0000030F1007908F3007808F2000A12F4
:1001F8008A113E200A128A117108F9007008F80065
:10020800FF3083120313A3070318A40AFF30A407BF
:10021800230A031D1329240A031D13291429DF287F
:10022800A2011230F4008030F500C030F6000A1246
:100238008A15D1270A128A112030F4000030F500FF
:10024800CC30F6000A128A15D1270A128A11CE304C
:10025800F400DF300A128A155A270A128A11CF30A1
:10026800F40043300A128A155A270A128A11080024
:10027800031083120313560D570DDD005D08031D8F
:100288004629472950290030D7000030D6000030D1
:10029800D5000030D400B3295408D8005508D90037
:1002A8005608DA005708DB001F300310DB0CDA0CA5
:1002B800D90CD80CFF3E031D59295808DC00D61765
:1002C800FF30D405FF30D505FF30D6050030D705FF
:1002D8009630DD02DD1F712972298C295D08803A6C
:1002E800973E0318782979297A294729013003107C
:1002F800D70CD60CD50CD40CFF3E031D7B2901303E
:10030800D8005808DD07031D8A298B297A29A329D3
:1003180020305D02031C912992299E29472901302A
:10032800D8000310D40DD50DD60DD70DD80B9529AF
:100338000130DD025D08031DA229A32993295C0869
:100348000319A729A829B329D409D509D609D70992
:10035800D40A0319D50A0319D60A0319D70A0800BB
:100368000A128A154F270A128A110130F4008030C8
:10037800F5008030F6000A128A15D1270A128A1170
:1003880002300A128A156B270A128A117108831221
:100398000313DF007008DE005E08F0005F08F1005C
:1003A800F201F30100300A128A112C220A128A1172
:1003B800730883120313A7007208A6007108A5002A
:1003C8007008A4004030A3009C30A2004030A10077
:1003D8000030A0000A128A11B7240A128A11831267
:1003E80003132308C1002208C0002108BF00200809
:1003F800BE004130BD002030BC000030BB000030E2
:10040800BA000A128A11E4220A128A11831203130B
:100418003D08D7003C08D6003B08D5003A08D40070
:100428000A128A113C210A128A11831203135508F1
:10043800E1005408E0006108F9006008F8000A12B9
:100448008A11D9200A128A11C4290A128A1100288D
:10045800F80078080319312A322A462AF31F352A68
:10046800362A462A7009FA007109FB007209FC0055
:100478007309FD00FA0A0319FB0A0319FC0A031998
:10048800FD0A4E2A7308FD007208FC007108FB0083
:100498007008FA007308720471047004031D552A69
:1004A800562A5F2A0030F3000030F2000030F100D5
:1004B8000030F000E32A9630F9006F2A0130F4008A
:1004C8007408F90701300310FD0CFC0CFB0CFA0C46
:1004D800FF3E031D672AFE307D05031D742A752A19
:1004E800622A912A0130F4007408F9070130FA07EA
:1004F800003003180130FB07003003180130FC07F7
:10050800003003180130FD0701300310FD0CFC0C0E
:10051800FB0CFA0CFF3E031D892AFF307D05031DE5
:10052800962A972A762AA32A0130F9020130F40084
:100538000310FA0DFB0DFC0DFD0DF40B9C2AFC1BA2
:10054800A62AA72AAD2A023079020318AC2AAD2AB6
:10055800982A7918B02AB12AB92AFF30FA05FF304B
:10056800FB057F30FC05FF30FD050310F90C790809
:10057800F400F501F601F70118300310F40DF50D3C
:10058800F60DF70DFF3E031DC12A7408FA0475081D
:10059800FB047608FC047708FD0478080319D52ABB
:1005A800D62ADB2AF31FD92ADA2ADB2AFD177D0887
:1005B800F3007C08F2007B08F1007A08F0000800DC
:1005C8008312031341088039CB004108C200420757
:1005D800D200C01FF02AF12AF22A52145208031935
:1005E800F62AF72A072B520A031DFB2AFC2A042B9A
:1005F8000030C1000030C0000030BF000030BE0035
:10060800C017C1010F2B0030C1000030C0000030FE
:10061800BF000030BE003D088039C2004208CB064A
:100628003D08C2004207D300BC1F1B2B1C2B1D2BEF
:10063800531453080319212B222B322B530A031D61
:10064800262B272B2F2B0030BD000030BC0000309C
:10065800BB000030BA00BC17BD013A2B0030BD000A
:100668000030BC000030BB000030BA003D083C043C
:100678003B043A04031D412B422B5B2B0030C10085
:100688000030C0000030BF000030BE008030C00421
:100698007F30C1044B08C2004208C1044108BD00B4
:1006A8004008BC003F08BB003E08BA00B62C520800
:1006B800031D5F2B602B692B0030BD000030BC0090
:1006C8000030BB000030BA00B62C5208C200C3018B
:1006D8004308C50053084202C400031CC50344086C
:1006E8007F3ECC0045080318013E003ECD0041087E
:1006F800CA004008C9003F08C8003E08C7000030CB
:10070800C1000030C0000030BF000030BE00003023
:10071800D1000030D0000030CF000030CE00D3012F
:10072800DF2B53080319992B9A2BBA2B0130C200DF
:100738000310C70DC80DC90DCA0DC20B9C2B013083
:10074800C2000310BE0DBF0DC00DC10DC20BA52BFD
:10075800D11FAF2BB02BB12B3E140130C2000310B8
:10076800CE0DCF0DD00DD10DC20BB32B3D084A02D3
:10077800031DC82B3C084902031DC82B3B0848022F
:10078800031DC82B3A084702031CCB2BCC2BDB2BB1
:1007980051173A08C7023B08031C3B0FC8023C0824
:1007A800031C3C0FC9023D08031C3D0FCA0201305F
:1007B800C2004208D3071A305302031CE42BE52B6E
:1007C800952B4A084904480447040319EC2BED2BE0
:1007D8000C2C4E140C2C0130C2000310BE0DBF0DA2
:1007E800C00DC10DC20BF12BD11FFB2BFC2BFD2B18
:1007F8003E140130C2000310CE0DCF0DD00DD10D27
:10080800C20BFF2BFF30CC070318CD0AFF30CD07F2
:10081800C01F0F2C102CEF2BD301D11F142C152C1B
:10082800312CFF304E05C200FF304F05C300FF30AA
:100838005005C4007F305105C500450844044304F1
:1008480042040319282C292C2C2CD301D30A312C2F
:100858003E1C2F2C302C312C292C53080319352CF5
:10086800362C672C0130BE07003003180130BF0753
:10087800003003180130C007003003180130C107E9
:10088800411C472C482C672C3E08C2003F08C30077
:100898004008C4004108C5000130C600450DC50C1C
:1008A800C40CC30CC20CC60B522C4508C10044082A
:1008B800C0004308BF004208BE000130CC0703183F
:1008C800CD0A0030CD074D08803AFF0080307F0206
:1008D800031D702CFF304C02031C732C742C822CCB
:1008E800FF3083120313CC000030CD000030C1006C
:1008F8000030C0000030BF000030BE008312031378
:100908004D08803AFF0080307F02031D8D2C013096
:100918004C020318902C912C9E2C83120313CC01AB
:10092800CD010030C1000030C0000030BF000030F1
:10093800BE00CB01831203134C08D200521CA52C15
:10094800A62CA82CC017AC2C7F30C2004208C005CA
:100958005208C2000310420CC1004B08C2004208F2
:10096800C104522B08008312031323088039AD00F9
:100978002308A8002807B300A21FC32CC42CC52C29
:10098800331433080319C92CCA2CD92C330A031D74
:10099800CE2CCF2CD72C0030A3000030A200003082
:1009A800A1000030A000A217E12C0030A300003005
:1009B800A2000030A1000030A00027088039A8005C
:1009C8002808AD062708A8002807B200A61FED2CA6
:1009D800EE2CEF2C321432080319F32CF42C032DCF
:1009E800320A031DF82CF92C012D0030A700003025
:1009F800A6000030A5000030A400A6170B2D00307B
:100A0800A7000030A6000030A5000030A40032087E
:100A180003190F2D102D152D3308031D142D152D19
:100A28001E2D0030A3000030A2000030A1000030CD
:100A3800A000FB2F2008F00026080A128A15AA2712
:100A48000A128A11710883120313B9007008B800DA
:100A58003808A800A901AA01AB012B08B1002A088F
:100A6800B0002908AF002808AE003908A800A9017D
:100A7800AA01AB012B08B7002A08B6002908B5005F
:100A88002808B4002108F00025080A128A15AA27A8
:100A98000A128A11710883120313B9007008B8008A
:100AA8003808A800A901AA01AB012808AE0729083F
:100AB80003110318013E0319622DAF072A08031119
:100AC8000318013E0319692DB0072B0803110318F9
:100AD800013E0319702DB1073908A800A901AA0120
:100AE800AB012808B407290803110318013E0319AC
:100AF8007E2DB5072A0803110318013E0319852D19
:100B0800B6072B0803110318013E03198C2DB707EC
:100B18002208F00024080A128A15AA270A128A1144
:100B2800710883120313B9007008B8003808A800C8
:100B3800A901AA01AB012808AE0729080311031867
:100B4800013E0319A82DAF072A0803110318013E17
:100B58000319AF2DB0072B0803110318013E031921
:100B6800B62DB1073908A800A901AA01AB012808C8
:100B7800B407290803110318013E0319C42DB5074A
:100B88002A0803110318013E0319CB2DB6072B08B9
:100B980003110318013E0319D22DB7070830A80026
:100BA8000310AE0DAF0DB00DB10DA80BD42D21085B
:100BB800F00024080A128A15AA270A128A11710855
:100BC80083120313B9007008B8003808A800390860
:100BD800A900AA01AB012808AE07290803110318C8
:100BE800013E0319F82DAF072A0803110318013E27
:100BF8000319FF2DB0072B0803110318013E031931
:100C0800062EB1072008F00025080A128A15AA271F
:100C18000A128A11710883120313B9007008B80008
:100C28003808A8003908A900AA01AB012808AE07AE
:100C3800290803110318013E0319232EAF072A08B8
:100C480003110318013E03192A2EB0072B080311BC
:100C58000318013E0319312EB1070830A80003100C
:100C6800AE0DAF0DB00DB10DA80B332E2008F0005E
:100C780024080A128A15AA270A128A1171088312EF
:100C88000313B9007008B8003808A8003908A9008B
:100C9800AA01AB012808AE07290803110318013E71
:100CA8000319572EAF072A0803110318013E031929
:100CB8005E2EB0072B0803110318013E0319652E99
:100CC800B1072108F00026080A128A15AA270A1275
:100CD8008A11710883120313B9007008B800380824
:100CE800A8003908A900AA01AB012808B4072908F7
:100CF80003110318013E0319822EB5072A080311B0
:100D08000318013E0319892EB6072B08031103188F
:100D1800013E0319902EB7072208F00025080A1291
:100D28008A15AA270A128A11710883120313B900B7
:100D38007008B8003808A8003908A900AA01AB0152
:100D48002808B407290803110318013E0319AD2E1A
:100D5800B5072A0803110318013E0319B42EB60774
:100D68002B0803110318013E0319BB2EB7072208ED
:100D7800F00026080A128A15AA270A128A11710891
:100D880083120313B9007008B8003808A80039089E
:100D9800A900AA01AB0108300310A80DA90DAA0DDE
:100DA800AB0DFF3E031DD02E2808B40729080311F8
:100DB8000318013E0319E12EB5072A080311031889
:100DC800013E0319E82EB6072B0803110318013E4C
:100DD8000319EF2EB7072E08A8002F08A90030081E
:100DE800AA003108AB0018300310AB0CAA0CA90CF0
:100DF800A80CFF3E031DF82E2808B4072908031184
:100E08000318013E0319092FB5072A08031103180F
:100E1800013E0319102FB6072B0803110318013ED2
:100E28000319172FB7070830A8000310AE0DAF0D30
:100E3800B00DB10DA80B192F33083207A800A9016E
:100E4800A90D2808823EB80029080318013EFF3E74
:100E5800B9004B2F0130A8000310B40DB50DB60D25
:100E6800B70DA80B302FB11F3A2F3B2F3C2F34144E
:100E78000130A8000310AE0DAF0DB00DB10DA80BD9
:100E88003E2FFF30B8070318B90AFF30B907B61F5D
:100E98004E2F4F2F2E2FB201B11F532F542F702FCB
:100EA800FF302E05A800FF302F05A900FF303005C0
:100EB800AA007F303105AB002B082A042904280436
:100EC8000319672F682F6B2FB201B20A702F341CD9
:100ED8006E2F6F2F702F682F32080319742F752FFC
:100EE800A62F0130B407003003180130B5070030D1
:100EF80003180130B607003003180130B707371C54
:100F0800862F872FA62F3408A8003508A900360891
:100F1800AA003708AB000130AC002B0DAB0CAA0CB3
:100F2800A90CA80CAC0B912F2B08B7002A08B60007
:100F38002908B5002808B4000130B8070318B90A11
:100F48000030B9073908803AFF0080307F02031D5E
:100F5800AF2FFF303802031CB22FB32FBE2F7F30C4
:100F680083120313B7008030B6000030B50000309C
:100F7800B400EF2F831203133908803AFF00803042
:100F88007F02031DC92F013038020318CC2FCD2F43
:100F9800D92F003083120313B7000030B600003099
:100FA800B5000030B400AD01EF2F831203133808E9
:100FB800B300FF30B405FF30B5057F30B60500300B
:100FC800B705331CE82FE92FEA2FB6173308A80016
:100FD8000310280CB7002D08A8002808B704370804
:100FE800A3003608A2003508A1003408A0000800B4
:100FF80083010A128A11B429FF1B0A2883137F1858
:1010080083170008840A0319FF0A080008308A00B9
:101018000408840A820700344C344D3433343534A0
:101028002034543445344D3450342034533445340A
:101038004E3453344F3452340034543445344D34E0
:1010480050345234413454345534523445343A349B
:04105800203400340C
:101E7A00831603139F17831203131F140800831674
:101E8A0003138801091189100A128A1182200A1281
:101E9A008A1508000A128A1544270A128A150A1294
:101EAA008A153D270A128A150800F500F001740800
:101EBA000A128A158A270A128A15F001F00A750889
:101ECA000A128A158A270A128A150800F500750867
:101EDA00F20003300310F20DFF3E031D6F2F831231
:101EEA0003131F08C73972049F001F151F197E2F7D
:101EFA007F2F7B2F1E08F400831603131E08F3009E
:101F0A007408F1007308F0000800F30070188E2FAF
:101F1A00922F831203130915952F831203130911A4
:101F2A00730888008914A630F100F10B9A2F00007B
:101F3A008312031389101B30F2009E30F100F10B5B
:101F4A00A42FF20BA42F00000800F800F401F501F9
:101F5A007008F200F3017208F6007308F700781CA3
:101F6A00B72FB82FBE2F7608F4070318F50A77089B
:101F7A00F50701300310F60DF70DFF3E031DBF2FC5
:101F8A000310F80C7808031DCB2FCC2FB42F75083B
:101F9A00F1007408F0000800F00176080A128A15A8
:101FAA008A270A128A15EF2FF001F00A7508FF0036
:101FBA00740884000A128A1500200A128A150A1265
:101FCA008A158A270A128A150130F4070318F50AB6
:101FDA000030F507750883120313FF0074088400A4
:101FEA000A128A1500200A128A15003A031DFE2FCA
:061FFA00FF2FD92F0800A3
:02400E00FB3F76
:00000001FF
