:020000040000FA
:060000000A128A11EE2F26
:100A22008316031306083F38860008003F34063455
:100A32005B344F3466346D347D3407347F346F3425
:100A420001348316031388010508033985008312D4
:100A5200031305080339850008007E088A007F0811
:100A620082000A128A112E250A128A118000840A33
:100A720004087D0603190034FF0A0319FE0A322D09
:100A8200F1006400831603178C18482D492D422D5E
:100A92007108831203178D003F30F000700883162F
:100AA20003178C050C14831203170C080800F601B7
:100AB200F701721C5D2D5E2D642D7408F607031874
:100AC200F70A7508F70701300310F40DF50DFF3E24
:100AD200031D652D01300310F30CF20CFF3E031DC4
:100AE2006C2D72087304031D772D782D5A2D77080B
:100AF200F3007608F2000800F1007108031D822D50
:100B0200832D882D8312031306083F39A62D3F300B
:100B1200831203130605F0003F3070060319922D6D
:100B2200932D9A2D42080319972D982D9A2DC201C3
:100B3200832D3F300605F0003F307006031DA22DC5
:100B4200A32DA52DC201C20A3F3008000A128A1144
:100B520022250A128A110A128A1111250A128A11F1
:100B620000300A128A1141250A128A11F800F9018D
:100B720001300A128A1141250A128A11FA00FB0178
:100B82007A08F2007B08F3006430F4000030F500CC
:100B92000A128A1158250A128A11780872078312DA
:100BA2000313C30079080318790A7307C400080005
:100BB20083120313A200831603178C18E12DE22D72
:100BC200DC2D831203132208831203178D00831274
:100BD20003132008831203178C003F308312031380
:100BE200A1002108831603178C0583120313031037
:100BF2008B1FFC2DFD2DFE2D03148B138316031763
:100C02000C1555308D00AA308D008C140C118312F6
:100C12000313031C0D2E0E2E0F2E8B1708007008C7
:100C220071040319152E162E452EF501F50A242EF0
:100C320001300310F00DF10DFF3E031D1A2E01309D
:100C4200F4007408F507F11F272E282E192E7108BB
:100C52007302031D2E2E70087202031C312E322ED7
:100C6200382E7008F2027108031CF303F3020130FC
:100C72000310F10CF00CFF3E031D392E0130F5027A
:100C8200031D442E452E282E7308F1007208F00031
:100C92000800FB01FC01760877040319512E522E3D
:100CA200892EFD01FD0A602E01300310F60DF70DAD
:100CB200FF3E031D562E0130FA007A08FD07F71F8A
:100CC200632E642E552E01300310FB0DFC0DFF3EEA
:100CD200031D652E77087902031D712E76087802AE
:100CE200031C742E752E7C2E7608F8027708031CDE
:100CF200F903F9027B1401300310F70CF60CFF3EE6
:100D0200031D7D2E0130FD02031D882E892E642EC7
:100D12007C08F7007B08F6000800F800F901790862
:100D22007807F0007008840083130008831203130D
:100D320088000430F000790AA02E0310F00DFF3E67
:100D4200031D9E2E05080339700485000030F7004C
:100D52000030F6000130F5009030F4000130F00070
:100D62000030F1000030F2000030F3007008F402AD
:100D72007108031C710FBE2EBF2EF5027208031CF0
:100D8200720FC42EC52EF6027308031C730FCA2EEF
:100D9200CB2EF702740A031DD82E750A031DD82E16
:100DA200760A031DD82E770A031DD82ED92EAF2E10
:100DB2000130F0007008F90704307902031CE22EBA
:100DC200E32E902E0800273084003830831203135C
:100DD200A3000408A4000A30A5002308840083139A
:100DE2000008A600A30A2408840026088000A40A9A
:100DF200A50BEE2EB6010A128A11A7250A128A1134
:100E020001300A128A117D250A128A1183120313F4
:100E1200B70000300A128A117D250A128A11831244
:100E22000313B5003E303706031D182F192F2A2F42
:100E32000130C3070318C40A0030C4072730440234
:100E4200103003194302031C272F282F2A2FC30116
:100E5200C4013E303506031D2F2F302F352F0130B0
:100E6200A3002308B607362FB60196303606031DB7
:100E72003B2F3C2F3E2FC301C4013D303706031DDB
:100E8200432F442F742F6430F0000030F1004408E7
:100E9200F3004308F2000A128A1110260A128A117C
:100EA200700883120313A00000300A128A11D92598
:100EB2000A128A116430F6000030F700831203131D
:100EC2004408F9004308F8000A128A114A260A1255
:100ED2008A11760883120313A00001300A128A11C4
:100EE200D9250A128A11E830F6000330F70083127E
:100EF20003134408F9004308F8000A128A114A262B
:100F02000A128A117608273E84008313000883128E
:100F12000313B1006430F6000030F7004408F30018
:100F22004308F200E830F0000330F1000A128A119F
:100F320010260A128A117108F9007008F8000A12C4
:100F42008A114A260A128A117608273E84008313E0
:100F5200000883120313B2000A30F6000030F700D3
:100F62004408F3004308F2006430F0000030F1005E
:100F72000A128A1110260A128A117108F9007008E1
:100F8200F8000A128A114A260A128A117608273EA6
:100F920084008313000883120313B3000A30F000A5
:100FA2000030F1004408F3004308F2000A128A11EB
:100FB20010260A128A117008273E84008313000843
:100FC20083120313B40031300A128A118E260A12D8
:100FD2008A11012F0A128A11002883134330FD005F
:100FE2000530FE001730FF00383084000A128A11E3
:0E0FF20032250A128A1183010A128A11E42E96
:02400E00FB3F76
:00000001FF
