:020000040000FA
:060000000A128A11EE2F26
:10080A008316031306083F38860008000A128A1165
:10081A004A240A128A1183160313111408000A12B1
:10082A008A114A240A128A11831603131115080021
:10083A00F0000A128A114A240A128A1170088312D5
:10084A000313930008000A128A1114240A128A1147
:10085A000A128A110B240A128A1108003F3406343C
:10086A005B344F3466346D347D3407347F346F34EF
:10087A00013483160313880105080339850083129E
:10088A000313050803398500080083160313141996
:10089A004F2C502C4A2C11081F39031D552C562C4D
:1008AA004A2C08007E088A007F0882000A128A11F0
:1008BA0057240A128A118000840A04087D06031943
:1008CA000034FF0A0319FE0A5B2CF0000A128A118F
:1008DA004A240A128A118316031391150A128A11DD
:1008EA004A240A128A11831203131308F1007003AF
:1008FA00031D802C812C852C831603139116882CBA
:10090A00831603139112111671080800F801F901F0
:10091A00741C902C912C972C7608F8070318F90A66
:10092A007708F90701300310F60DF70DFF3E031D96
:10093A00982C01300310F50CF40CFF3E031D9F2C7C
:10094A0074087504031DAA2CAB2C8D2C7908F500AC
:10095A007808F4000800F1007108031DB52CB62CC4
:10096A00BB2C8312031306083F39D92C3F3083125C
:10097A0003130605F0003F3070060319C52CC62C78
:10098A00CD2C4B080319CA2CCB2CCD2CCB01B62C61
:10099A003F300605F0003F307006031DD52CD62CDB
:1009AA00D82CCB01CB0A3F300800F2000A128A1178
:1009BA000B240A128A11A0300A128A111D240A1263
:1009CA008A1172080A128A111D240A128A110A123D
:1009DA008A1128240A128A11A1300A128A111D24A6
:1009EA000A128A1100300A128A116A240A128A111A
:1009FA00F3000A128A1114240A128A1173080800D1
:100A0A0083120313A3000A128A110B240A128A11F1
:100A1A00A0300A128A111D240A128A1183120313A2
:100A2A0023080A128A111D240A128A118312031337
:100A3A0020080A128A111D240A128A110A128A111E
:100A4A0014240A128A11143083120313A200793073
:100A5A00A100A10B2E2DA20B2E2D08008312031329
:100A6A0094152008A4002108A5002208A60023083E
:100A7A00A70002300310A40DA50DA60DA70DFF3E79
:100A8A00031D3F2D2708F3002608F2002508F10070
:100A9A002408F0000130F7003130F6002D30F5005F
:100AAA000030F4000A128A117E260A128A1170088E
:100ABA00FF3E831603139300831203139416080050
:100ACA007008710403196A2D6B2D9A2DF501F50A28
:100ADA00792D01300310F00DF10DFF3E031D6F2D2E
:100AEA000130F4007408F507F11F7C2D7D2D6E2D61
:100AFA0071087302031D832D70087202031C862D70
:100B0A00872D8D2D7008F2027108031CF303F3027E
:100B1A0001300310F10CF00CFF3E031D8E2D013045
:100B2A00F502031D992D9A2D7D2D7308F100720887
:100B3A00F0000800FB01FC01760877040319A62DD2
:100B4A00A72DDE2DFD01FD0AB52D01300310F60D8E
:100B5A00F70DFF3E031DAB2D0130FA007A08FD07A1
:100B6A00F71FB82DB92DAA2D01300310FB0DFC0D6E
:100B7A00FF3E031DBA2D77087902031DC62D76089C
:100B8A007802031CC92DCA2DD12D7608F8027708E0
:100B9A00031CF903F9027B1401300310F70CF60C5D
:100BAA00FF3E031DD22D0130FD02031DDD2DDE2D7A
:100BBA00B92D7C08F7007B08F60008000A128A1192
:100BCA003E240A128A110A128A1105240A128A116B
:100BDA00003083120313A3000130A2008630A10063
:100BEA00A030A0000A128A1133250A128A11003095
:100BFA000A128A11DA240A128A1183120313A8002C
:100C0A00A90101300A128A11DA240A128A118312FE
:100C1A000313AA00AB012A08F4002B08F50064307C
:100C2A00F6000030F7000A128A118B240A128A1180
:100C3A008312031328087407CC0029080318290A09
:100C4A007507CD000800F800F90179087807F00067
:100C5A007008840083130008831203138800043089
:100C6A00F000790A3A2E0310F00DFF3E031D382ECC
:100C7A0005080339700485000030F7000030F600DB
:100C8A000130F5009030F4000130F0000030F1003E
:100C9A000030F2000030F3007008F4027108031CFF
:100CAA00710F582E592EF5027208031C720F5E2E10
:100CBA005F2EF6027308031C730F642E652EF7026B
:100CCA00740A031D722E750A031D722E760A031DFD
:100CDA00722E770A031D722E732E492E0130F000F0
:100CEA007008F90704307902031C7C2E7D2E2A2E07
:100CFA0008000030FC000030FB000030FA00003031
:100D0A00F900730872047104700403198D2E8E2E73
:100D1A00DB2EFD01FD0A9E2E0130F8000310F00DB6
:100D2A00F10DF20DF30DF80B932E0130F80078084F
:100D3A00FD07F31FA12EA22E912E0130F8000310F9
:100D4A00F90DFA0DFB0DFC0DF80BA42E73087702B2
:100D5A00031DB92E72087602031DB92E7108750299
:100D6A00031DB92E70087402031CBC2EBD2ECC2E96
:100D7A007008F4027108031C710FF5027208031C53
:100D8A00720FF6027308031C730FF702791401300D
:100D9A000310F30CF20CF10CF00CFF3E031DCD2EE8
:100DAA000130FD02031DDA2EDB2EA22E7C08F30091
:100DBA007B08F2007A08F1007908F0000800303068
:100DCA008400413083120313AC000408AD000A30DA
:100DDA00AE002C08840083130008AF00AC0A2D086B
:100DEA0084002F088000AD0AAE0BEE2EBF010A1256
:100DFA008A11E3250A128A1101300A128A11B024D3
:100E0A000A128A1183120313C00000300A128A11CF
:100E1A00B0240A128A1183120313BE003E30400620
:100E2A00031D182F192F2A2F0130CC070318CD0ABA
:100E3A000030CD0727304D02103003194C02031C35
:100E4A00272F282F2A2FCC01CD013E303E06031D25
:100E5A002F2F302F352F0130AC002C08BF07362F2B
:100E6A00BF0196303F06031D3B2F3C2F3E2FCC017E
:100E7A00CD013D304006031D432F442F742F6430AB
:100E8A00F0000030F1004D08F3004C08F2000A129D
:100E9A008A1165250A128A11700883120313A000A9
:100EAA0000300A128A1105250A128A116430F600E6
:100EBA000030F700831203134D08F9004C08F800BC
:100ECA000A128A119F250A128A11760883120313BD
:100EDA00A00001300A128A1105250A128A11E83087
:100EEA00F6000330F700831203134D08F9004C088B
:100EFA00F8000A128A119F250A128A117608303ED2
:100F0A0084008313000883120313BA006430F600C6
:100F1A000030F7004D08F3004C08F200E830F0000A
:100F2A000330F1000A128A1165250A128A11710822
:100F3A00F9007008F8000A128A119F250A128A110C
:100F4A007608303E84008313000883120313BB0023
:100F5A000A30F6000030F7004D08F3004C08F200A2
:100F6A006430F0000030F1000A128A1165250A1275
:100F7A008A117108F9007008F8000A128A119F256F
:100F8A000A128A117608303E8400831300088312FD
:100F9A000313BC000A30F0000030F1004D08F300E2
:100FAA004C08F2000A128A1165250A128A11700881
:100FBA00303E84008313000883120313BD003A30C5
:100FCA000A128A1128260A128A11012F0A128A1174
:100FDA00002883134C30FD000430FE003330FF003C
:100FEA00413084000A128A115B240A128A11830191
:060FFA000A128A11E42E28
:02400E00FB3F76
:00000001FF
