:020000040000FA
:060000000A128A11F62F1E
:100DEA0001348316031306083F3886000800831669
:100DFA00031388018312031388010A128A11F62643
:100E0A000A128A110800F1007108031D0D2F0E2F16
:100E1A00132F8312031306083F39312F3F308312F1
:100E2A0003130605F0003F30700603191D2F1E2F0D
:100E3A00252F7C080319222F232F252FFC010E2F83
:100E4A003F300605F0003F307006031D2D2F2E2F70
:100E5A00302FFC01FC0A3F3008000030F600003059
:100E6A00F5000030F4000030F300FB01F801F9014D
:100E7A00FA010A128A11FC260A128A1101300A1290
:100E8A008A1108270A128A11F7003E307706031DD5
:100E9A004F2F502F622F79080319542F562F0130E4
:100EAA00572F0030F9007A0803195C2F5E2F0130A2
:100EBA005F2F0030FA007B08F8000130F30700309A
:100ECA0003180130F407003003180130F507003029
:100EDA0003180130F607A930730661300319740646
:100EEA0075047604031D7A2F7B2F432F0030F600FA
:100EFA000030F5000030F4000030F3007908031DDB
:100F0A00872F882FB82F7A03031D8C2F8D2F912FAF
:100F1A007808103CFB00FA0108307B020318962F70
:100F2A00972FA02F031483120313880D0130F200A8
:100F3A007208FB07B82F08307B02031CA52FA62FC7
:100F4A00B72F10307B020318AB2FAC2FB72F8312A9
:100F5A0003130808F200720788000130F2007208D1
:100F6A00FB07B82FFB017903031DBC2FBD2F432FAD
:100F7A007A03031DC12FC22FC62F7808103CFB002D
:100F8A00FA0108307B020318CB2FCC2FD92F8312FA
:100F9A0003130808F2000310720C8038880001302D
:100FAA00F2007208FB07432F08307B02031CDE2F76
:100FBA00DF2FF12F10307B020318E42FE52FF12FDA
:100FCA00831203130808F2000310720C8800013020
:100FDA00F2007208FB07432FFB01432F0A128A1102
:100FEA0000280A128A11F5260A128A11FC008301C6
:060FFA000A128A11322FD9
:02400E00FB3F76
:00000001FF
