:020000040000FA
:060000000A128A110C280F
:10000800FE00030EF2000A08F3000A128A11CB2838
:100018000A128A110F2883134430FD000130FE00B4
:100028004130FF00383084000A128A1132210A1246
:100038008A11C401C501C601C701F801F90183018C
:100048000A128A11812883120313A400A501250826
:100058002407F4007408840083130008880004301F
:10006800F400250A39280310F40DFF3E031D372834
:1000780005080339740485000030A3000030A2008D
:100088000130A1009030A0000130F4000030F500EC
:100098000030F6000030F700740883120313A00242
:1000A8007508031C750F59285A28A1027608031CE5
:1000B800760F5F286028A2027708031C770F65284F
:1000C8006628A302200A031D7328210A031D73282A
:1000D800220A031D7328230A031D7328742848283D
:1000E8000130F400740883120313A50704302502B5
:1000F800031C7F2880282B2808002A3084003830E9
:1001080083120313A6000408A7000A30A8002608D3
:10011800840083130008A900A60A27088400290878
:100128008000A70AA80B8B280A128A1115210A1227
:100138008A1100308312031347020530031946025F
:100148000318A728A828B7282B08B4002C08B5003E
:100158002D08B6002E08B70034300A128A1127205D
:100168000A128A119D28C201C3014418BC28C0285C
:10017800831203138614C3288312031386100508F9
:100188000339850063009D280A128A110C280B1D6B
:10019800CE28CF280029831203130108083E8100C6
:1001A8000130F8070318F90A0030F90720307806FB
:1001B8004E3003197906031DE228E328FF28F801C9
:1001C800F9010130C6070318C70A0030C707420300
:1001D8004304031DF028F128FF2802308606031087
:1001E80086180314003003180130F000F10170087C
:1001F800C4007108C5000B118B1C032904290E29A2
:10020800013083120313C2000030C300C601C701C6
:1002180086148B1073088A00720E8300FE0E7E0E01
:100228000900013083160313860003308312031379
:1002380086000A128A114D210A128A110A128A119D
:1002480059210A128A110A128A1163210A128A1183
:100258008B1708007E088A007F0882000A128A111C
:100268002E210A128A118000840A04087D060319C7
:100278000034FF0A0319FE0A32293F3406345B347E
:100288004F3466346D347D3407347F346F34013431
:100298000034831603138801050803398500831287
:1002A8000313050803398500080083160313811218
:1002B800811506308312031381008B1608008316FC
:0802C800031301130B160800DB
:02400E00FB3F76
:00000001FF
