:020000040000FA
:060000000A128A110C280F
:10000800FE00030EF0000A08F1000A128A11AE2859
:100018000A128A110F280A128A1149210A128A1112
:10002800FB00F701F801F901FA0183010A128A11AC
:100038001729C33083120313A100CC30A000A00BF2
:100048002328A10B23280000F20133300A128A1159
:10005800D8200A128A111B3083120313A1009D3085
:10006800A000A00B3528A10B35283A28F20133301F
:100078000A128A11D8200A128A11A5308312031392
:10008800A000A00B45284828F20133300A128A1133
:10009800D8200A128A11502851280000F20138305D
:1000A8000A128A11D8200A128A11A5308312031362
:1000B800A000A00B5D286028F20101300A128A1105
:1000C800D8200A128A11043083120313A1003D308C
:1000D800A000A00B6D28A10B6D28F2010C300A12AC
:1000E8008A11D8200A128A11A53083120313A0009E
:1000F800A00B7C287F28080083120313A100F201BB
:1001080076080A128A11D8200A128A119F28F20149
:10011800F20A210884000A128A1100210A128A119F
:100128000A128A11D8200A128A1101308312031385
:10013800A0002008A10783120313210884000A12D3
:100148008A1100210A128A11003A031DAC28AD2831
:100158008B2808000B1DB128B228D128831203135D
:100168000108083E81000130F7070318F80A00303B
:10017800F807203077064E3003197806031DC52886
:10018800C628D128F701F8017A080319CC28CE2807
:100198000130CF280030FA000B1171088A00700E68
:1001A8008300FE0E7E0E0900F5007218DC28E02898
:1001B800831203130915E328831203130911750821
:1001C80088008914A630F300F30BE8280000831296
:1001D800031389101B30F4009E30F300F30BF22850
:0801E800F40BF22800000800EE
:1002000001308A000408840A8207003445344D34E2
:1002100045345234543458344534203449344E34FF
:1002200046344F34543445344334483400340A128D
:100230008A1128210A128A11C030F60001300A12F0
:100240008A1180200A128A111C290A128A110C288C
:100250000A128A113F210A128A110A128A113421C4
:100260000A128A118B1708008316031388010911DB
:1002700089100A128A111D200A128A110800831699
:1002800003138112811506308312031381008B162C
:04029000080001342D
:02400E00FB3F76
:00000001FF
