:020000040000FA
:060000000A128A11FC2F18
:100ED400831603138801831203138801080000306A
:100EE400F4000030F3000030F2000030F100F501AE
:100EF4000A128A116A270A128A110130F107003096
:100F040003180130F207003003180130F3070030F2
:100F140003180130F40751307106C3300319720607
:100F240073047404031D972F982F7F2F0030F4004F
:100F34000030F3000030F2000030F1000830750298
:100F44000318A52FA62FAF2F031483120313880DA4
:100F54000130F0007008F5077F2F08307502031C7C
:100F6400B42FB52FC62F103075020318BA2FBB2F1C
:100F7400C62F831203130808F0007007880001309D
:100F8400F0007008F5077F2F10307502031CCB2F7B
:100F9400CC2FDF2F183075020318D12FD22FDF2F5B
:100FA400831203130808F0000310700C80388800C3
:100FB4000130F0007008F5077F2F18307502031C0C
:100FC400E42FE52FF72F203075020318EA2FEB2FBB
:100FD400F72F831203130808F0000310700C880025
:100FE4000130F0007008F5077F2FF5017F2F0A12FA
:0C0FF4008A11002883010A128A11712F53
:02400E00FB3F76
:00000001FF
