:020000040000FA
:060000000A128A110C280F
:10000800FE00030EF1000A08F2000A128A11882B7A
:100018000A128A110F2883134730FD000430FE00AE
:100028002130FF003D3084000A128A11F5230A129C
:100038008A110A128A113B240A128A11FA00C7018E
:10004800C801C901CA01F801F90183010A128A111C
:100058002D282A3084003D3083120313A60004089B
:10006800A7000A30A8002608840083130008A90006
:10007800A60A2708840029088000A70AA80B3728A1
:10008800BC01BB01B401B40ABA010A128A110424E2
:100098000A128A1101300A128A11C7230A128A1118
:1000A80083120313B50037303506031D5C285D281D
:1000B8006628340803196128632801306428003051
:1000C800B400BA013403031D6A286B28C4283E30E3
:1000D8003506031D7028712891283A08031D7528D4
:1000E800762881280130A6002608BB073C303B0251
:1000F800031C7F2880288128BB013A03031D85281B
:10010800862891280130A6002608BC0718303C0232
:10011800031C8F2890289128BC013D303506031D0B
:1001280096289728B5283A08031D9B289C28A628B6
:100138000130BB023C303B02031CA328A428A6289C
:100148003B30BB003A03031DAA28AB28B528013071
:10015800BC0218303C02031CB228B328B52817305B
:10016800BC003B303506031DBA28BB28E1283A08F5
:100178000319BF28C1280130C2280030BA00E1287D
:100188003C304A06031DC928CA28CF280130A600DA
:100198002608BB07CA013C303B06031DD428D528D6
:1001A800DA280130A6002608BC07BB0118303C0637
:1001B800031DDF28E028E128BC013403031DE528DE
:1001C800E628E1293A08031DEA28EB286C290A30B9
:1001D800F3000030F4003C08A600A7012608F5004B
:1001E8002708F6000A128A116A220A128A1173086D
:1001F8002A3E84008313000883120313B6004908BB
:10020800031D0729082952290A30F3000030F40099
:100218003C08A600A7012608F5002708F6000A12E0
:100228008A11D3220A128A1173082A3E8400831382
:100238000008803883120313B7000A30F300003037
:10024800F4003B08A600A7012608F5002708F600D9
:100258000A128A116A220A128A1173082A3E840035
:100268008313000883120313B8000A30F300003028
:10027800F4003B08A600A7012608F5002708F600A9
:100288000A128A11D3220A128A1173082A3E84009C
:100298008313000883120313B9006C290A30F30092
:1002A8000030F4003C08A600A7012608F50027083E
:1002B800F6000A128A11D3220A128A1173082A3EFA
:1002C80084008313000883120313B700B801B9012F
:1002D8003A03031D70297129DA294908031D752974
:1002E8007629A8290A30F3000030F4003C08A6005B
:1002F800A7012608F5002708F6000A128A116A22C3
:100308000A128A1173082A3E840083130008831294
:100318000313B6000A30F3000030F4003C08A600CE
:10032800A7012608F5002708F6000A128A11D32229
:100338000A128A1173082A3E840083130008803841
:1003480083120313B700AA29B601B7010A30F300D4
:100358000030F4003B08A600A7012608F50027088E
:10036800F6000A128A116A220A128A1173082A3EB2
:1003780084008313000883120313B8000A30F300C3
:100388000030F4003B08A600A7012608F50027085E
:10039800F6000A128A11D3220A128A1173082A3E19
:1003A80084008313000883120313B90036300A123D
:1003B8008A112E230A128A114E280A30F3000030BF
:1003C800F4003C08A600A7012608F5002708F60057
:1003D8000A128A116A220A128A1173082A3E8400B4
:1003E8008313000883120313B6004903031DFD2974
:1003F800FE29182A0A30F3000030F4003C08A60051
:10040800A7012608F5002708F6000A128A11D32248
:100418000A128A1173082A3E840083130008803860
:1004280083120313B700302A0A30F3000030F400B7
:100438003C08A600A7012608F5002708F6000A12BE
:100448008A11D3220A128A1173082A3E8400831360
:10045800000883120313B7000A30F3000030F400D9
:100468003B08A600A7012608F5002708F6000A128F
:100478008A116A220A128A1173082A3E8400831399
:10048800000883120313B8000A30F3000030F400A8
:100498003B08A600A7012608F5002708F6000A125F
:1004A8008A11D3220A128A1173082A3E8400831300
:1004B800000883120313B90036300A128A112E235A
:1004C8000A128A114E280A128A110C288312031361
:1004D800A101F41F702A712A782AF309F409F30A92
:1004E8000319F40AA101A10AF61F7B2A7C2A852A8E
:1004F800F509F609F50A0319F60A0130F700770835
:10050800A106A201A3017308740403198C2A8D2A79
:10051800C42AA001A00A9B2A01300310F30DF40D90
:10052800FF3E031D912A0130F7007708A007F41F4A
:100538009E2A9F2A902A01300310A20DA30DFF3E88
:10054800031DA02A74087602031DAC2A73087502DD
:10055800031CAF2AB02AB72A7308F5027408031CD3
:10056800F603F602221401300310F40CF30CFF3EDC
:10057800031DB82A0130A002031DC32AC42A9F2ADA
:1005880021080319C82AC92ACE2AA209A309A20A3E
:100598000319A30A2308F4002208F30008008312B1
:1005A8000313A101F61FD92ADA2AE12AF509F60967
:1005B800F50A0319F60AA101A10AF41FE42AE52A9B
:1005C800EA2AF309F409F30A0319F40A730874040C
:1005D8000319EF2AF02A1F2BA001A00AFE2A0130D6
:1005E8000310F30DF40DFF3E031DF42A0130F7004C
:1005F8007708A007F41F012B022BF32A7408760250
:10060800031D082B73087502031C0B2B0C2B122BD4
:100618007308F5027408031CF603F6020130031090
:10062800F40CF30CFF3E031D132B0130A002031D35
:100638001E2B1F2B022B21080319232B242B292BBC
:10064800F509F609F50A0319F60A7608F40075089B
:10065800F300080083120313A400A501250824074A
:10066800F300730884008313000888000430F30043
:10067800250A402B0310F30DFF3E031D3E2B0508F2
:100688000339730485000030A3000030A200013054
:10069800A1009030A0000130F3000030F4000030D9
:1006A800F5000030F600730883120313A0027408E3
:1006B800031C740F602B612BA1027508031C750FB6
:1006C800662B672BA2027608031C760F6C2B6D2B0A
:1006D800A302200A031D7A2B210A031D7A2B220A62
:1006E800031D7A2B230A031D7A2B7B2B4F2B0130FA
:1006F800F300730883120313A50704302502031CB3
:10070800862B872B322B08000B1D8B2B8C2BC02B99
:10071800831203130108083E81000130F80703180B
:10072800F90A0030F907213078064E3003197906A6
:10073800031D9F2BA02BA62B0130F0007008CA07C1
:10074800F801F9010130C7070318C80A0030C807C3
:1007580011304706273003194806031DB42BB52B63
:10076800BF2B49080319B92BBB2B0130BC2B003018
:10077800C900C701C8010B1172088A00710E8300F5
:10078800FE0E7E0E0900F4007408031DCC2BCD2B41
:10079800D22B8312031306083F39F02B3F30831204
:1007A80003130605F3003F3073060319DC2BDD2B1A
:1007B800E42B7A080319E12BE22BE42BFA01CD2B69
:1007C8003F300605F3003F307306031DEC2BED2B7D
:1007D800EF2BFA01FA0A3F3008007E088A007F08EA
:1007E80082000A128A11F1230A128A118000840AEF
:1007F80004087D0603190034FF0A0319FE0AF52BC5
:100808000A128A1115240A128A110A128A11352429
:100818000A128A110A128A112B240A128A118B17BA
:10082800080083160313880105080339850083121D
:10083800031305080339850008003F3406345B3488
:100848004F3466346D347D3407347F346F34831607
:1008580003138112811506308312031381008B164E
:1008680008008316031306083F3886000800013481
:02400E00FB3F76
:00000001FF
