:020000040000FA
:060000000A128A11E82F2C
:100A860001348316031306083F38860008003F34F6
:100A960006345B344F3466346D347D3407347F342A
:100AA6006F340A128A115F250A128A110A128A11F4
:100AB60044250A128A1108008316031388010508C3
:100AC60003398500831203130508033985000800DE
:100AD6007E088A007F0882000A128A116B250A1294
:100AE6008A118000840A04087D0603190034FF0A6F
:100AF6000319FE0A6F2DF1006400831603178C1884
:100B0600852D862D7F2D7108831203178D003F30AA
:100B1600F0007008831603178C050C148312031754
:100B26000C080800F1007108031D9A2D9B2DA02DBD
:100B36008312031306083F39BE2D3F308312031379
:100B46000605F0003F3070060319AA2DAB2DB22D15
:100B56007D080319AF2DB02DB22DFD019B2D3F3021
:100B66000605F0003F307006031DBA2DBB2DBD2DC6
:100B7600FD01FD0A3F300800F200831603178C18AA
:100B8600C52DC62DC02D7208831203178D0070085F
:100B96008C003F30F1007108831603178C05831211
:100BA600031303108B1FD82DD92DDA2D03148B13A5
:100BB600831603170C1555308D00AA308D008C1442
:100BC6000C1183120313031CE92DEA2DEB2D8B1751
:100BD6000800F4003E307406031DF22DF32DFC2DA3
:100BE6007C08F00000300A128A11BF250A128A1109
:100BF6001C2E3D307406031D012E022E0A2E0030D7
:100C06000A128A117E250A128A11FC001C2E3B301C
:100C16007406031D0F2E102E1C2E0130F3007308D0
:100C2600FC070A307C06031D192E1A2E1C2EFC0109
:100C36001C2E7C080800F800F90179087807F000F6
:100C4600700884008313000883120313880004309D
:100C5600F000790A302E0310F00DFF3E031D2E2EF4
:100C660005080339700485000030F7000030F600EF
:100C76000130F5009030F4000130F0000030F10052
:100C86000030F2000030F3007008F4027108031C13
:100C9600710F4E2E4F2EF5027208031C720F542E42
:100CA600552EF6027308031C730F5A2E5B2EF7029D
:100CB600740A031D682E750A031D682E760A031D25
:100CC600682E770A031D682E692E3F2E0130F0002C
:100CD6007008F90704307902031C722E732E202E39
:100CE6000800F601F31F782E792E802EF209F309FB
:100CF600F20A0319F30AF601F60AF11F832E842E6F
:100D0600892EF009F109F00A0319F10A7008710435
:100D160003198E2E8F2EBE2EF501F50A9D2E01305B
:100D26000310F00DF10DFF3E031D932E0130F4006C
:100D36007408F507F11FA02EA12E922E71087302DA
:100D4600031DA72E70087202031CAA2EAB2EB12E0D
:100D56007008F2027108031CF303F302013003105A
:100D6600F10CF00CFF3E031DB22E0130F502031DFF
:100D7600BD2EBE2EA12E76080319C22EC32EC82E56
:100D8600F209F309F20A0319F30A7308F10072086B
:100D9600F000080083120313A101F81FD32ED42EEE
:100DA600DB2EF709F809F70A0319F80AA101A10AC7
:100DB600FA1FDE2EDF2EE82EF909FA09F90A0319C1
:100DC600FA0A0130FB007B08A106A201A3017708FD
:100DD60078040319EF2EF02E272FA001A00AFE2E6D
:100DE60001300310F70DF80DFF3E031DF42E013000
:100DF600FB007B08A007F81F012F022FF32E0130FE
:100E06000310A20DA30DFF3E031D032F78087A02DF
:100E1600031D0F2F77087902031C122F132F1A2F89
:100E26007708F9027808031CFA03FA022214013043
:100E36000310F80CF70CFF3E031D1B2F0130A00218
:100E4600031D262F272F022F210803192B2F2C2FA6
:100E5600312FA209A309A20A0319A30A2308F8003D
:100E66002208F70008002830840037308312031365
:100E7600A4000408A5000A30A600240884008313F1
:100E86000008A700A40A2508840027088000A50AF0
:100E9600A60B402F0A128A1154250A128A11013014
:100EA6000A128A1195250A128A1183120313B600B3
:100EB60036080A128A11EC250A128A11FC00E8305B
:100EC600F7000330F8007C0883120313A400A50181
:100ED6002408F9002508FA000A128A11CD260A12FA
:100EE6008A117708283E84008313000883120313AF
:100EF600B2006430F7000030F8007C08A400A501B9
:100F06002408F2002508F300E830F0000330F10071
:100F16000A128A1174260A128A117108FA007008D8
:100F2600F9000A128A11CD260A128A117708283E7C
:100F360084008313000883120313B3000A30F700FA
:100F46000030F8007C08A400A5012408F20025085A
:100F5600F3006430F0000030F1000A128A117426A2
:100F66000A128A117108FA007008F9000A128A1129
:100F7600CD260A128A117708283E840083130008BA
:100F860083120313B4000A30F0000030F1007C082D
:100F9600A400A5012408F2002508F3000A128A110C
:100FA60074260A128A117008283E840083130008EA
:100FB60083120313B50032300A128A111E260A1252
:100FC6008A11522F0A128A11002883134130FD001C
:100FD6000530FE004A30FF00373084000A128A11BD
:100FE6006F250A128A110A128A1143250A128A11DA
:0A0FF600FD0083010A128A11362F54
:02400E00FB3F76
:00000001FF
