:020000040000FA
:060000000A128A11F62F1E
:100F1A0001348316031306083F388600080083123B
:100F2A00031388018316031388010A128A118E2774
:100F3A000A128A110800F1007108031DA52FA62FB5
:100F4A00AB2F8312031306083F39C92F3F30831290
:100F5A0003130605F0003F3070060319B52FB62FAC
:100F6A00BD2F75080319BA2FBB2FBD2FF501A62F68
:100F7A003F300605F0003F307006031DC52FC62F0F
:100F8A00C82FF501F50A3F3008000A128A11942782
:100F9A000A128A1101300A128A11A0270A128A112A
:100FAA00F4003E307406031DDB2FDC2FCF2F0130F7
:100FBA008312031388065030F200C330F300013065
:100FCA00F2020030031CF303F302720A031DF12F2D
:100FDA00730A031DF12FF22FE42FCF2F0A128A1161
:100FEA0000280A128A118D270A128A11F500830134
:060FFA000A128A11CA2F41
:02400E00FB3F76
:00000001FF
