:020000040000FA
:060000000A128A11FC2F18
:100F5E0083160313880183120313880108000A12F3
:100F6E008A11AF270A128A110030F7000030F600FE
:100F7E000030F5000030F4000130F0000030F100D8
:100F8E000030F2000030F3007008F4027108031C08
:100F9E00710FD22FD32FF5027208031C720FD82FA8
:100FAE00D92FF6027308031C730FDE2FDF2FF70203
:100FBE00740A031DEC2F750A031DEC2F760A031D10
:100FCE00EC2F770A031DEC2FED2FC32F8312031383
:100FDE0088090030F7000130F6008630F500A030A9
:100FEE00F400C32F0A128A11002883010A128A11F3
:020FFE00B62F0C
:02400E00FB3F76
:00000001FF
