:020000040000FA
:060000000A128A110C280F
:10000800FE00030EF1000A08F2000A128A110C2AF7
:100018000A128A110F2883134430FD000230FE00B3
:100028007630FF003A3084000A128A114F220A12F1
:100038008A11C401C501F701F801F901FA01830128
:100048000A128A1127282A3084003A3083120313AF
:10005800A6000408A7000A30A80026088400831315
:100068000008A900A60A2708840029088000A70A12
:10007800A80B31280C30B900B8010A128A115E2287
:100088000A128A113C30831203134506031D4D28BA
:100098004E2853280130A6002608B807C5013C3071
:1000A8003806031D582859285E280130A60026085E
:1000B800B907B80118303906031D63286428652874
:1000C800B9010A30F3000030F4003908A600A7018E
:1000D8002608F5002708F6000A128A11EE200A12EF
:1000E8008A1173082A3E84008313000883120313BD
:1000F800B4004403031D812882289C280A30F30099
:100108000030F4003908A600A7012608F5002708E2
:10011800F6000A128A1157210A128A1173082A3E18
:10012800840083130008803883120313B500B428B1
:100138000A30F3000030F4003908A600A7012608A9
:10014800F5002708F6000A128A1157210A128A11A7
:1001580073082A3E84008313000883120313B50032
:100168000A30F3000030F4003808A600A70126087A
:10017800F5002708F6000A128A11EE200A128A11E1
:1001880073082A3E84008313000883120313B60001
:100198000A30F3000030F4003808A600A70126084A
:1001A800F5002708F6000A128A1157210A128A1147
:1001B80073082A3E84008313000883120313B700D0
:1001C80034300A128A11B2210A128A1146280A12F8
:1001D8008A110C2883120313A201F41FF428F528AE
:1001E800FC28F309F409F30A0319F40AA201A20A84
:1001F800F61FFF2800290929F509F609F50A031948
:10020800F60A0130A0002008A206A301A401730881
:1002180074040319102911294829A101A10A1F29C9
:1002280001300310F30DF40DFF3E031D15290130B5
:10023800A0002008A107F41F22292329142901302E
:100248000310A30DA40DFF3E031D24297408760294
:10025800031D302973087502031C332934293B29EF
:100268007308F5027408031CF603F6022314013020
:100278000310F40CF30CFF3E031D3C290130A102CE
:10028800031D472948292329220803194C294D29E8
:100298005229A309A409A30A0319A40A2408F400EB
:1002A8002308F300080083120313A201F61F5D2937
:1002B8005E296529F509F609F50A0319F60AA20166
:1002C800A20AF41F682969296E29F309F409F30AB7
:1002D8000319F40A73087404031973297429A329E8
:1002E800A101A10A822901300310F30DF40DFF3E8C
:1002F800031D78290130A0002008A107F41F8529D3
:100308008629772974087602031D8C2973087502DB
:10031800031C8F29902996297308F5027408031C79
:10032800F603F60201300310F40CF30CFF3E031D34
:1003380097290130A102031DA229A3298629220891
:100348000319A729A829AD29F509F609F50A0319FA
:10035800F60A7608F4007508F30008008312031300
:10036800A400A50125082407F3007308840083135B
:10037800000888000430F300250AC4290310F30D8F
:10038800FF3E031DC22905080339730485000030A8
:10039800A3000030A2000130A1009030A00001307D
:1003A800F3000030F4000030F5000030F600730868
:1003B80083120313A0027408031C740FE429E529AF
:1003C800A1027508031C750FEA29EB29A202760819
:1003D800031C760FF029F129A302200A031DFE2928
:1003E800210A031DFE29220A031DFE29230A031DD3
:1003F800FE29FF29D3290130F30073088312031360
:10040800A50704302502031C0A2A0B2AB62908006E
:100418000B1D0F2A102A442A831203130108083ED1
:1004280081000130F9070318FA0A0030FA07213071
:1004380079064E3003197A06031D232A242A2A2A0C
:100448000130F0007008C507F901FA010130F7071B
:100458000318F80A0030F807113077062730031917
:100468007806031D382A392A432A440803193D2AE5
:100478003F2A0130402A0030C400F701F8010B116F
:1004880072088A00710E8300FE0E7E0E09007E0837
:100498008A007F0882000A128A114B220A128A11E6
:1004A8008000840A04087D0603190034FF0A031932
:1004B800FE0A4F2A0A128A116A220A128A110A129D
:1004C8008A1180220A128A118B17080083160313D7
:1004D80088010508033985008312031305080339C9
:1004E800850008003F3406345B344F3466346D347D
:1004F8007D3407347F346F348316031381128115DA
:0C05080006308312031381008B160800DC
:02400E00FB3F76
:00000001FF
