:020000040000FA
:060000000A128A11EE2F26
:100BB8008316031306083F38860008000A128A11B4
:100BC800F8250A128A110A128A11DC250A128A11DA
:100BD80008003F3406345B344F3466346D347D345A
:100BE80007347F346F3401348316031388010508F2
:100BF80003398500831203130508033985000800AB
:100C08007E088A007F0882000A128A1104260A12C6
:100C18008A118000840A04087D0603190034FF0A3B
:100C28000319FE0A082EF1007108031D1C2E1D2E43
:100C3800222E8312031306083F39402E3F308312B9
:100C480003130605F0003F30700603192C2E2D2ED5
:100C5800342E42080319312E322E342EC2011D2E95
:100C68003F300605F0003F307006031D3C2E3D2E38
:100C78003F2EC201C20A3F300800700871040319F0
:100C8800462E472E762EF501F50A552E0130031013
:100C9800F00DF10DFF3E031D4B2E0130F4007408DA
:100CA800F507F11F582E592E4A2E71087302031D9D
:100CB8005F2E70087202031C622E632E692E700864
:100CC800F2027108031CF303F30201300310F10C64
:100CD800F00CFF3E031D6A2E0130F502031D752E30
:100CE800762E592E7308F1007208F0000800FB01F7
:100CF800FC01760877040319822E832EBA2EFD0193
:100D0800FD0A912E01300310F60DF70DFF3E031D6D
:100D1800872E0130FA007A08FD07F71F942E952ECA
:100D2800862E01300310FB0DFC0DFF3E031D962E91
:100D380077087902031DA22E76087802031CA52ED7
:100D4800A62EAD2E7608F8027708031CF903F902DF
:100D58007B1401300310F70CF60CFF3E031DAE2E7A
:100D68000130FD02031DB92EBA2E952E7C08F7001E
:100D78007B08F6000800F800F90179087807F00008
:100D8800700884008313000883120313880004305A
:100D9800F000790AD12E0310F00DFF3E031DCF2E6F
:100DA80005080339700485000030F7000030F600AC
:100DB8000130F5009030F4000130F0000030F1000F
:100DC8000030F2000030F3007008F4027108031CD0
:100DD800710FEF2EF02EF5027208031C720FF52E1C
:100DE800F62EF6027308031C730FFB2EFC2EF70277
:100DF800740A031D092F750A031D092F760A031D9E
:100E0800092F770A031D092F0A2FE02E0130F00061
:100E18007008F90704307902031C132F142FC12E10
:100E2800080024308400383083120313A00004081B
:100E3800A1000A30A2002008840083130008A30040
:100E4800A00A2108840023088000A10AA20B1F2FF2
:100E5800B601B701B401B5010A128A11E2250A12D6
:100E68008A1101300A128A1117260A128A1183126E
:100E78000313B20000300A128A1117260A128A11C7
:100E880083120313B3003E303206031D4C2F4D2F3F
:100E98005E2F0130B6070318B70A0030B7072730AE
:100EA8003702103003193602031C5B2F5C2F5E2FAC
:100EB800B601B7013E303306031D632F642F6B2F35
:100EC8000130B4070318B50A0030B5076D2FB40117
:100ED800B501963034063504031D732F742F762F11
:100EE800B601B701E830F6000330F7003708F9001B
:100EF8003608F8000A128A117B260A128A11760827
:100F0800243E84008313000883120313AE00643068
:100F1800F6000030F7003708F3003608F200E83032
:100F2800F0000330F1000A128A1141260A128A11D0
:100F38007108F9007008F8000A128A117B260A1253
:100F48008A117608243E8400831300088312031351
:100F5800AF000A30F6000030F7003708F300360813
:100F6800F2006430F0000030F1000A128A114126C4
:100F78000A128A117108F9007008F8000A128A1119
:100F88007B260A128A117608243E840083130008FF
:100F980083120313B0000A30F0000030F100370864
:100FA800F3003608F2000A128A1141260A128A1141
:100FB8007008243E84008313000883120313B100D1
:100FC8002E300A128A11BF260A128A11352F0A12E8
:100FD8008A11002883134330FD000530FE00ED30F0
:100FE800FF00383084000A128A1108260A128A1172
:080FF80083010A128A11152F72
:02400E00FB3F76
:00000001FF
