:020000040000FA
:060000000A128A110C280F
:10000800FE00030EF0000A08F1000A128A111528F2
:100018000A128A110F28FA01FB0183010A128A11B8
:1000280062280B1D182819283C287B087902031D13
:100038001F287A087802031C2228232827288312DD
:10004800031308142A28831203130810E8307A06C9
:10005800033003197B06031D322833283528FA019B
:10006800FB010130FA070318FB0A0030FB070B11EC
:1000780071088A00700E8300FE0E7E0E0900F700DC
:100088007708F40003300310F40DFF3E031D4728E2
:10009800831203131F08C73974049F001F151F1903
:1000A8005628572853281E08F600831603131E08DF
:1000B800F5007608F3007508F20008000A128A11A4
:1000C80075200A128A1100300A128A1143200A1276
:1000D8008A117308F9007208F80067280A128A1151
:1000E8000C288312031388018316031388010A124C
:1000F8008A118E200A128A110A128A1187200A127E
:100108008A118B170800831603139F178312031392
:100118001F14080083160313811281158B1608001B
:02400E00FB3F76
:00000001FF
