:020000040000FA
:060000000A128A11EE2F26
:100BF2008316031306083F38860008000A128A117A
:100C02000A260A128A110A128A11F9250A128A116F
:100C1200080083160313880105080339850083122F
:100C2200031305080339850008003F3406345B349A
:100C32004F3466346D347D3407347F346F3400347E
:100C4200003401347E088A007F0882000A128A1169
:100C520023260A128A118000840A04087D060319D9
:100C62000034FF0A0319FE0A272EF1007108031D42
:100C72003B2E3C2E412E8312031306083F395F2E72
:100C82003F30831203130605F0003F30700603194C
:100C92004B2E4C2E532E44080319502E512E532EF8
:100CA200C4013C2E3F300605F0003F307006031DA4
:100CB2005B2E5C2E5E2EC401C40A3F300800700811
:100CC20071040319652E662E952EF501F50A742E10
:100CD20001300310F00DF10DFF3E031D6A2E0130AD
:100CE200F4007408F507F11F772E782E692E71082B
:100CF2007302031D7E2E70087202031C812E822E47
:100D0200882E7008F2027108031CF303F30201300B
:100D12000310F10CF00CFF3E031D892E0130F50289
:100D2200031D942E952E782E7308F1007208F000A0
:100D32000800F800F90179087807F00070088400CB
:100D4200831300088312031388000430F000790A29
:100D5200AC2E0310F00DFF3E031DAA2E0508033929
:100D6200700485000030F7000030F6000130F50015
:100D72009030F4000130F0000030F1000030F20059
:100D82000030F3007008F4027108031C710FCA2EC0
:100D9200CB2EF5027208031C720FD02ED12EF60252
:100DA2007308031C730FD62ED72EF702740A031D85
:100DB200E42E750A031DE42E760A031DE42E770A3B
:100DC200031DE42EE52EBB2E0130F0007008F9075A
:100DD20004307902031CEE2EEF2E9C2E08002030E8
:100DE20084003830FA000408FB000C30FC007A085A
:100DF200840083130008FD00FA0A7B0884007D0842
:100E02008000FB0AFC0BF82E83120313B601B70114
:100E1200B201B301B5010A128A11FF250A128A1121
:100E220001300A128A1136260A128A11831203131A
:100E3200B4003E303406031D1F2F202F222FB30192
:100E42002A2F3D303406031D272F282F2A2FB301C6
:100E5200B30A3B303406031D2F2F302F3C2F3508A9
:100E62000319342F362F0130372F0030B5003708E1
:100E7200AD003608AC000130FA007A08B2075130F2
:100E82003206031D452F462F842FB2013508031D5C
:100E92004B2F4C2F7A2F3308031D502F512F612FC8
:100EA2000130B6070318B70A0030B7070E3036060E
:100EB2003704031D5D2F5E2F842FB601B701842FE7
:100EC2003303031D652F662F842F0130B6020030D5
:100ED200031CB703B702FE303606031D742F370A10
:100EE200031D742F752F842F0C30B6000030B7000D
:100EF200842F3503031D7E2F7F2F842F2D08B700EB
:100F02002C08B600842F0C30F0000030F1003708B6
:100F1200F3003608F2000A128A1160260A128A11B8
:100F22007008203E84008313000883120313AE006E
:100F32000C30F0000030F1003608013EF2003708B4
:100F42000318013E003EF3000A128A1160260A12BB
:100F52008A117008203E8400831300088312031351
:100F6200AF000C30F0000030F1003608023EF20013
:100F720037080318013E003EF3000A128A11602668
:100F82000A128A117008203E84008313000883121B
:100F92000313B0000C30F0000030F1003608033EBD
:100FA200F20037080318013E003EF3000A128A11CC
:100FB20060260A128A117008203E840083130008FA
:100FC20083120313B1002E300A128A119A260A12D2
:100FD2008A11112F0A128A11002883134530FD004D
:100FE2000630FE001630FF00383084000A128A11E3
:0E0FF20027260A128A1183010A128A11F02E94
:02400E00FB3F76
:00000001FF
