:020000040000FA
:100000000A128A11D82FFF1B0D2883137F1883171C
:100010000008840A0319FF0A080000308A00040857
:10002000840A8207003420342034203420342034E1
:100030002034203420342034203420342034203420
:10004000203420342034003445344E345434453484
:10005000523420344E344534573420344E345534E1
:100060004D3442344534523400344D3453344734E3
:040070003A340034EA
:100652000134831603138801091189100A128A11C1
:100662001D240A128A1108000A128A112A230A1268
:100672008A110A128A1140230A128A11080083166B
:1006820003130608073886000808F039880081132A
:1006920083120313881508158814081408002034DF
:1006A20020342034203420342034203420342034A8
:1006B2002034203420342034203420342034F500F7
:1006C200F00174080A128A11E7230A128A11F00152
:1006D200F00A75080A128A11E7230A128A11080021
:1006E2002034203420342034203420342034203468
:1006F2002034203420342034203420342034203458
:1007020004347E088A007F0882000A128A1182233A
:100712000A128A118000840A04087D060319003433
:10072200FF0A0319FE0A862BF2000A128A1180249C
:100732000A128A11F3007208031DA02BA12BA32B0E
:100742007308B72B730A0319A72BA82BAF2B7B08AF
:100752000319AC2BAD2BAF2BFB01A12B730A031D8D
:10076200B32BB42BB62BFB01FB0AFF300800F001C0
:1007720076080A128A11E7230A128A11D62BF0018F
:10078200F00A7508FF00740884000A128A11032017
:100792000A128A110A128A11E7230A128A110130F7
:1007A200F4070318F50A0030F507750883120313DE
:1007B200FF00740884000A128A1103200A128A11A7
:1007C200003A031DE52BE62BC02B0800F30070183E
:1007D200EB2BEF2B831203130915F22B8312031356
:1007E20009117308F03988008914A630F100F10B61
:1007F200F82B000083120313891073080F39F100DC
:1008020003300310F10DFF3E031D022C0310710D86
:1008120088008914A630F100F10B0D2C0000831220
:10082200031389101B30F2009E30F100F10B172CDC
:10083200F20B172C00000800C330F500CD30F40095
:10084200F40B212CF50B212CF00133300A128A1102
:10085200E7230A128A111B30F5009E30F400F40BD4
:10086200302CF50B302C0000F00133300A128A11C3
:10087200E7230A128A11A630F400F40B3E2C000082
:10088200F00133300A128A11E7230A128A11492C25
:100892004A2C0000F00102300A128A11E7230A12E0
:1008A2008A11A630F400F40B542C0000F001283019
:1008B2000A128A11E7230A128A11A630F400F40BF5
:1008C200602C0000F00101300A128A11E7230A129B
:1008D2008A110430F5003D30F400F40B6E2CF50B58
:1008E2006E2C732CF0010C300A128A11E7230A12C3
:1008F2008A11A630F400F40B7C2C0000080083124D
:10090200031388110815881408146430F0000030AD
:10091200F100FF30F0070318F10AFF30F107700A07
:10092200031D972C710A031D972C982C8A2C831275
:10093200031306189D2C9E2CA02C01302B2D8618FB
:10094200A32CA42CA62C02302B2D0619A92CAA2CE0
:10095200AC2C03302B2D8815081188140814643030
:10096200F0000030F100FF30F0070318F10AFF3009
:10097200F107700A031DC12C710A031DC12CC22C80
:10098200B42C831203130618C72CC82CCA2C0430AB
:100992002B2D8618CD2CCE2CD02C05302B2D0619C4
:1009A200D32CD42CD62C06302B2D88150815881064
:1009B20008146430F0000030F100FF30F007031833
:1009C200F10AFF30F107700A031DEB2C710A031DB7
:1009D200EB2CEC2CDE2C831203130618F12CF22CD8
:1009E200F42C07302B2D8618F72CF82CFA2C083013
:1009F2002B2D0619FD2CFE2C002D09302B2D8815D0
:100A02000815881408106430F0000030F100FF303F
:100A1200F0070318F10AFF30F107700A031D152DC4
:100A2200710A031D152D162D082D831203130618A6
:100A32001B2D1C2D1E2D2A302B2D8618212D222DEB
:100A4200242D00302B2D0619272D282D2A2D233059
:100A52002B2DFF30080083120313D801D901D401D2
:100A6200D501343084005A30F7000408F800103001
:100A7200F9007708840083130008FA00F70A78085F
:100A820084007A088000F80AF90B3A2D203084009D
:100A9200A030F7000408F8001030F900770884004D
:100AA20083130008FA00F70A780884007A088000A5
:100AB200F80AF90B4F2D0130C6000030C700C801FB
:100AC200C9010130C4000030C5000A128A11352361
:100AD2000A128A1101300A128A1195230A128A1106
:100AE20083120313D600560A0319782D792D7B2D14
:100AF2005608D7000130EB070318EC0A0030EC0768
:100B020003306B066C04031D872D882D922DEB019B
:100B1200EC016D0803198E2D902D0130912D0030BE
:100B2200ED0046034704031D972D982DE92E123040
:100B3200F4008030F5008030F6000A128A11B823E2
:100B42000A128A112330F4008030F500C030F6001A
:100B52000A128A11B8230A128A11C52D6A08C03EE8
:100B6200F400FF300A128A1160230A128A11D72D6B
:100B72003430F4000030F500C430F6000A128A1155
:100B8200B8230A128A11D72D831203136D08F700B6
:100B9200F8017808003A0319CF2DD72D7708003ACB
:100BA2000319AF2D013A0319B92DD72D831203135F
:100BB20044034504031DDE2DDF2DE62D5408343E8B
:100BC20084005808303E831380005603031DEA2D2B
:100BD200EB2D162E0130D8070318D90A0030D90799
:100BE2005908803AFF0080307F02031DFA2D0A3037
:100BF2005802031CFD2DFE2D022E83120313D80171
:100C0200D901831203135408343E84005808303E3D
:100C1200831380006A08C03EF4005808303E0A126E
:100C22008A1160230A128A116B2D02305606031DA7
:100C32001B2E1C2E3C2EFF30D8070318D90AFF307A
:100C4200D907D91F252E262E2A2E0930D80000308A
:100C5200D9005408343E84005808303E8313800083
:100C62006A08C03EF4005808303E0A128A11602316
:100C72000A128A116B2D03305606031D412E422E95
:100C8200892E0130F4008030F5008030F6000A121F
:100C92008A11B8230A128A110130F4008030F5005B
:100CA200C030F6000A128A11B8230A128A110230E1
:100CB20083120313D7000230CB00CC01CD014D08C3
:100CC200803AFF0080307F02031D692E10304C02F3
:100CD200031C6C2E6D2E6E2E822E831203134C0873
:100CE200343E840083130008F7004C08203E840041
:100CF200770880000130CC070318CD0A0030CD07F9
:100D0200602E83120313C401C501C601C7016B2DF6
:100D120005305606031D8E2E8F2EB12E0F306A021D
:100D22000318942E952E6B2DD801D9010130F700AE
:100D32007708EA070130D4070318D50A0030D5072F
:100D42005408343E84003030831380006A08C03E69
:100D5200F40030300A128A1160230A128A116B2DB4
:100D620006305606031DB62EB72EE82E05306A024F
:100D7200031CBC2EBD2EE82E10306A020318C22EB0
:100D8200C32EE82E6A08C03EF40020300A128A11EF
:100D920060230A128A11831203135408343E84001A
:100DA2002030831380005408FF3E343E8400000844
:100DB200D03ED800FF3003180030D9000130EA02DB
:100DC2000130D4020030031CD503D5026B2D6B2DEC
:100DD2005703031DED2EEE2E332F5708CB00340898
:100DE200CA00CE01CF0100304F02103003194E026B
:100DF200031CFC2EFD2EFE2E112F4E08013E343E0A
:100E0200840083130008F7004E08343E84007708FC
:100E120080000130CE070318CF0A0030CF07F42E2E
:100E22004A08C3003430F4000030F500C030F60048
:100E32000A128A11B8230A128A115030831203133C
:100E4200B000C330B1000130B0020030031CB10366
:100E5200B102300A031D312F310A031D312F322F07
:100E6200242F6B2D02305706031D382F392F7D2F6B
:100E72005708CB004308CA000F30D0000030D10021
:100E820050085104031D462F472F482F5B2F50084F
:100E9200FF3E343E840083130008F7005008343EBE
:100EA2008400770880000130D0020030031CD10397
:100EB200D102412F4A08B4003430F4000030F5006A
:100EC200C030F6000A128A11B8230A128A11503071
:100ED20083120313B200C330B3000130B2020030F8
:100EE200031CB303B302320A031D7B2F330A031D13
:100EF2007B2F7C2F6E2F6B2D03305706031D822F05
:100F0200832F9D2F480849040319882F8A2F013007
:100F12008B2F0030F700F8017708C8007808C90065
:100F220048034904031D962F972F9A2F2030D7008C
:100F32006B2D4B08D7006B2D04305706031DA22FD3
:100F4200A32FCE2FD201D3015308803AFF00803065
:100F52007F02031DAE2F10305202031CB12FB22F9D
:100F6200B32FC72F831203135208203E840083132A
:100F72000008F7005208343E8400770880000130F0
:100F8200D2070318D30A0030D307A52F01308312EA
:100F92000313C6000030C7006B2D20305706031D17
:100FA200D32FD42F9A2F6B2D0A128A110028831364
:100FB200B030FD000330FE005030FF00A03084004E
:100FC2000A128A1186230A128A116B30FD0003303D
:100FD200FE007130FF005A3084000A128A11862303
:100FE2000A128A110A128A1129230A128A11FB0093
:0E0FF200EB01EC01ED0183010A128A112C2D96
:02400E00FB3F76
:00000001FF
