:020000040000FA
:060000000A128A110C280F
:10000800FE00030EF6000A08F7000A128A111928E2
:100018000A128A110F28F001F101F201F301F4012B
:10002800F50183010A128A11B5280B1D1C281D2809
:100038003628831203130108083E81000130F407B3
:100048000318F50A0030F507103074062730031935
:100058007506031D302831283528F401F5010130D3
:1000680088060B11831203130C1C3B283C285528C7
:100078000E08083E8E00FF308F000130F20703188B
:10008800F30A0030F307103072062730031973069D
:10009800031D4F2850285428F201F3010230880626
:1000A8000C108C1C5828592870281108023E910001
:1000B8000130F0070318F10A0030F107103070061C
:1000C800273003197106031D6A286B286F28F00171
:1000D800F101043088068C1077088A00760E8300B8
:1000E800FE0E7E0E09008316031388018312031384
:1000F80088010A128A11AB200A128A110A128A117F
:100108008F200A128A110A128A119E200A128A1155
:100118000B178B17080083120313901590101014F7
:10012800831603130C14FF30831203138F00063059
:100138008E0008008312031312109210FA308316EF
:10014800031392008C1483120313121508008316EC
:1001580003138112811506308312031381008B1655
:1001680008000A128A1177200A128A11BA280A127C
:040178008A110C28B4
:02400E00FB3F76
:00000001FF
