:020000040000FA
:100000000A128A11EE2FFF1B0D2883137F18831706
:100010000008840A0319FF0A080000308A00040857
:10002000840A820700342034523449344734483437
:10003000543420344D3441345234513455344534E1
:06004000453420340034B9
:100D52000A128A11AF260A128A1108008316031397
:100D62008801091189100A128A112D270A128A1183
:100D720008005334633472346F346C346C34693425
:100D82006E3467342034443465346D346F34203427
:100D9200203400347E088A007F0882000A128A11F9
:100DA200CB260A128A118000840A04087D060319E0
:100DB2000034FF0A0319FE0ACF2EF3007018E22E48
:100DC200E62E831203130915E92E83120313091168
:100DD200730888008914A630F100F10BEE2E000092
:100DE2008312031389101B30F2009E30F100F10BC5
:100DF200F82EF20BF82E00000800F00176080A1215
:100E02008A11DE260A128A111C2FF001F00A7508D7
:100E1200FF00740884000A128A1103200A128A1140
:100E22000A128A11DE260A128A110130F407031807
:100E3200F50A0030F507750883120313FF007408E2
:100E420084000A128A1103200A128A11003A031D31
:100E52002B2F2C2F062F0800C330F500CD30F400C5
:100E6200F40B312FF50B312FF00133300A128A11B6
:100E7200DE260A128A111B30F5009E30F400F40BB4
:100E8200402FF50B402F0000F00133300A128A1177
:100E9200DE260A128A11A630F400F40B4E2F00004F
:100EA200F00133300A128A11DE260A128A11592FF2
:100EB2005A2F0000F00138300A128A11DE260A1277
:100EC2008A11A630F400F40B642F0000F001013007
:100ED2000A128A11DE260A128A110430F5003D3008
:100EE200F400F40B722FF50B722F772FF0010C30F8
:100EF2000A128A11DE260A128A11A630F400F40BB5
:100F0200802F00000800203084003630F7000408EB
:100F1200F8001130F9007708840083130008FA0002
:100F2200F70A780884007A088000F80AF90B8C2FF7
:100F32000A128A11A9260A128A110130F40080309D
:100F4200F5008030F6000A128A11FE260A128A1172
:100F5200831203132F08B3000F30B4000030B50022
:100F62003408FF3E203E840083130008F700340853
:100F7200203E8400770880000130B4020030031C58
:100F8200B503B50234083504031DC82FC92FB12F8C
:100F92003308A0002030F4000030F500C030F60025
:100FA2000A128A11FE260A128A1150308312031382
:100FB200B100C330B2000130B1020030031CB203F1
:100FC200B202310A031DE92F320A031DE92FEA2F6B
:100FD200DC2F9E2F0A128A11002883134730FD004E
:100FE2000630FE00BA30FF00363084000A128A1141
:0E0FF200CF260A128A1183010A128A11842F57
:02400E00FB3F76
:00000001FF
