:020000040000FA
:100000000A128A11E82FFF1B0D2883137F1883170C
:100010000008840A0319FF0A080000308A00040857
:10002000840A820700345234693467346834743483
:1000300020345334633472346F346C346C34693428
:100040006E34673420340034533431342D344C341E
:100050006534663474342034533432342D3452349D
:10006000693467346834743400344C34653466342D
:10007000743420345334633472346F346C346C34DD
:1000800069346E34673420340034533465346C344E
:1000900065346334743420344D344B34503420345C
:0600A00053345734003414
:100A3A000134831603138801091189100A128A11D5
:100A4A00F0250A128A1108000A128A111E250A12B2
:100A5A008A110A128A1134250A128A110800831689
:100A6A0003130608073886000808F039880081133E
:100A7A0083120313881508158814081408004334D0
:100A8A004C34433444342034543465347334743429
:100A9A00203443346F3464346534203420340034D1
:100AAA007E088A007F0882000A128A1155250A12D6
:100ABA008A118000840A04087D0603190034FF0A9B
:100ACA000319FE0A592DF2000A128A1153260A1234
:100ADA008A11F3007208031D732D742D762D730885
:100AEA008A2D730A03197A2D7B2D822D7B0803190F
:100AFA007F2D802D822DFB01742D730A031D862DF7
:100B0A00872D892DFB01FB0AFF300800F0017608CA
:100B1A000A128A11BA250A128A11A92DF001F00ABD
:100B2A007508FF00740884000A128A1103200A1249
:100B3A008A110A128A11BA250A128A110130F40797
:100B4A000318F50A0030F507750883120313FF002E
:100B5A00740884000A128A1103200A128A11003AC0
:100B6A00031DB82DB92D932D0800F3007018BE2D62
:100B7A00C22D831203130915C52D831203130911FC
:100B8A007308F03988008914A630F100F10BCB2DD7
:100B9A00000083120313891073080F39F100033020
:100BAA000310F10DFF3E031DD52D0310710D8800B2
:100BBA008914A630F100F10BE02D00008312031313
:100BCA0089101B30F2009E30F100F10BEA2DF20B76
:100BDA00EA2D00000800C330F500CD30F400F40B14
:100BEA00F42DF50BF42DF00133300A128A11BA25CF
:100BFA000A128A111B30F5009E30F400F40B032E02
:100C0A00F50B032E0000F00133300A128A11BA25BF
:100C1A000A128A11A630F400F40B112E0000F0011A
:100C2A0033300A128A11BA250A128A111C2E1D2E75
:100C3A000000F00102300A128A11BA250A128A113A
:100C4A00A630F400F40B272E0000F00128300A1217
:100C5A008A11BA250A128A11A630F400F40B332E2F
:100C6A000000F00101300A128A11BA250A128A110B
:100C7A000430F5003D30F400F40B412EF50B412E03
:100C8A00462EF0010C300A128A11BA250A128A116C
:100C9A00A630F400F40B4F2E000008008312031351
:100CAA0088110815881408146430F0000030F10027
:100CBA00FF30F0070318F10AFF30F107700A031D2D
:100CCA006A2E710A031D6A2E6B2E5D2E8312031380
:100CDA000618702E712E732E0130FE2E8618762E6F
:100CEA00772E792E0230FE2E06197C2E7D2E7F2E2F
:100CFA000330FE2E88150811881408146430F00099
:100D0A000030F100FF30F0070318F10AFF30F10755
:100D1A00700A031D942E710A031D942E952E872E98
:100D2A008312031306189A2E9B2E9D2E0430FE2E34
:100D3A008618A02EA12EA32E0530FE2E0619A62E49
:100D4A00A72EA92E0630FE2E88150815881008141D
:100D5A006430F0000030F100FF30F0070318F10AA8
:100D6A00FF30F107700A031DBE2E710A031DBE2E45
:100D7A00BF2EB12E831203130618C42EC52EC72EFA
:100D8A000730FE2E8618CA2ECB2ECD2E0830FE2E08
:100D9A000619D02ED12ED32E0930FE2E881508150D
:100DAA00881408106430F0000030F100FF30F007BA
:100DBA000318F10AFF30F107700A031DE82E710AC1
:100DCA00031DE82EE92EDB2E831203130618EE2EDE
:100DDA00EF2EF12E2A30FE2E8618F42EF52EF72E3F
:100DEA000030FE2E0619FA2EFB2EFD2E2330FE2E83
:100DFA00FF300800203084003C30F7000408F80077
:100E0A001130F9007708840083130008FA00F70A02
:100E1A00780884007A088000F80AF90B072F0A126A
:100E2A008A1129250A128A113330F4008030F5001C
:100E3A008030F6000A128A118B250A128A111230A2
:100E4A00F4008030F500C030F6000A128A118B25B2
:100E5A000A128A1101300A128A1168250A128A11A5
:100E6A0083120313B500350A03193C2F3D2F3F2F78
:100E7A003508B6003603031D432F442F922F233023
:100E8A00F4008030F5008030F6000A128A118B25B2
:100E9A000A128A11831203132008B700B801B90194
:100EAA003808013E203E840083130008F700380802
:100EBA00203E8400770880000130B8070318B90A79
:100ECA000030B90700303902103003193802031C08
:100EDA006F2F702F552F3708AF002030F4000030E5
:100EEA00F500C030F6000A128A118B250A128A11FF
:100EFA00503083120313B100C330B2000130B10283
:100F0A000030031CB203B202310A031D902F320AC9
:100F1A00031D902F912F832F2F2F02303606031D8A
:100F2A00972F982F2F2F0130F4008030F500803052
:100F3A00F6000A128A118B250A128A1183120313E8
:100F4A002F08B7000F30BA000030BB003A08FF3E46
:100F5A00203E840083130008F7003A08203E8400EC
:100F6A00770880000130BA020030031CBB03BB02C1
:100F7A003A083B04031DC22FC32FAB2F3708A0002A
:100F8A002030F4000030F500C030F6000A128A1151
:100F9A008B250A128A11503083120313B300C3300F
:100FAA00B4000130B3020030031CB403B402330AA4
:100FBA00031DE32F340A031DE32FE42FD62F2F2F0F
:100FCA000A128A11002883134D30FD000530FE00F5
:100FDA004430FF003C3084000A128A1159250A1253
:100FEA008A110A128A111D250A128A11FB0083012D
:060FFA000A128A11FF2E0D
:02400E00FB3F76
:00000001FF
